{
  "_format": "hh-sol-artifact-1",
  "contractName": "DeChronicle",
  "sourceName": "contracts/DeChronicleNFT.sol",
  "abi": [
    {
      "inputs": [],
      "stateMutability": "nonpayable",
      "type": "constructor"
    },
    {
      "inputs": [
        {
          "internalType": "address",
          "name": "sender",
          "type": "address"
        },
        {
          "internalType": "uint256",
          "name": "tokenId",
          "type": "uint256"
        },
        {
          "internalType": "address",
          "name": "owner",
          "type": "address"
        }
      ],
      "name": "ERC721IncorrectOwner",
      "type": "error"
    },
    {
      "inputs": [
        {
          "internalType": "address",
          "name": "operator",
          "type": "address"
        },
        {
          "internalType": "uint256",
          "name": "tokenId",
          "type": "uint256"
        }
      ],
      "name": "ERC721InsufficientApproval",
      "type": "error"
    },
    {
      "inputs": [
        {
          "internalType": "address",
          "name": "approver",
          "type": "address"
        }
      ],
      "name": "ERC721InvalidApprover",
      "type": "error"
    },
    {
      "inputs": [
        {
          "internalType": "address",
          "name": "operator",
          "type": "address"
        }
      ],
      "name": "ERC721InvalidOperator",
      "type": "error"
    },
    {
      "inputs": [
        {
          "internalType": "address",
          "name": "owner",
          "type": "address"
        }
      ],
      "name": "ERC721InvalidOwner",
      "type": "error"
    },
    {
      "inputs": [
        {
          "internalType": "address",
          "name": "receiver",
          "type": "address"
        }
      ],
      "name": "ERC721InvalidReceiver",
      "type": "error"
    },
    {
      "inputs": [
        {
          "internalType": "address",
          "name": "sender",
          "type": "address"
        }
      ],
      "name": "ERC721InvalidSender",
      "type": "error"
    },
    {
      "inputs": [
        {
          "internalType": "uint256",
          "name": "tokenId",
          "type": "uint256"
        }
      ],
      "name": "ERC721NonexistentToken",
      "type": "error"
    },
    {
      "inputs": [
        {
          "internalType": "address",
          "name": "owner",
          "type": "address"
        }
      ],
      "name": "OwnableInvalidOwner",
      "type": "error"
    },
    {
      "inputs": [
        {
          "internalType": "address",
          "name": "account",
          "type": "address"
        }
      ],
      "name": "OwnableUnauthorizedAccount",
      "type": "error"
    },
    {
      "anonymous": false,
      "inputs": [
        {
          "indexed": true,
          "internalType": "address",
          "name": "owner",
          "type": "address"
        },
        {
          "indexed": true,
          "internalType": "address",
          "name": "approved",
          "type": "address"
        },
        {
          "indexed": true,
          "internalType": "uint256",
          "name": "tokenId",
          "type": "uint256"
        }
      ],
      "name": "Approval",
      "type": "event"
    },
    {
      "anonymous": false,
      "inputs": [
        {
          "indexed": true,
          "internalType": "address",
          "name": "owner",
          "type": "address"
        },
        {
          "indexed": true,
          "internalType": "address",
          "name": "operator",
          "type": "address"
        },
        {
          "indexed": false,
          "internalType": "bool",
          "name": "approved",
          "type": "bool"
        }
      ],
      "name": "ApprovalForAll",
      "type": "event"
    },
    {
      "anonymous": false,
      "inputs": [
        {
          "indexed": false,
          "internalType": "uint256",
          "name": "_fromTokenId",
          "type": "uint256"
        },
        {
          "indexed": false,
          "internalType": "uint256",
          "name": "_toTokenId",
          "type": "uint256"
        }
      ],
      "name": "BatchMetadataUpdate",
      "type": "event"
    },
    {
      "anonymous": false,
      "inputs": [
        {
          "indexed": false,
          "internalType": "uint256",
          "name": "_tokenId",
          "type": "uint256"
        }
      ],
      "name": "MetadataUpdate",
      "type": "event"
    },
    {
      "anonymous": false,
      "inputs": [
        {
          "indexed": true,
          "internalType": "address",
          "name": "previousOwner",
          "type": "address"
        },
        {
          "indexed": true,
          "internalType": "address",
          "name": "newOwner",
          "type": "address"
        }
      ],
      "name": "OwnershipTransferred",
      "type": "event"
    },
    {
      "anonymous": false,
      "inputs": [
        {
          "indexed": true,
          "internalType": "address",
          "name": "from",
          "type": "address"
        },
        {
          "indexed": true,
          "internalType": "address",
          "name": "to",
          "type": "address"
        },
        {
          "indexed": true,
          "internalType": "uint256",
          "name": "tokenId",
          "type": "uint256"
        }
      ],
      "name": "Transfer",
      "type": "event"
    },
    {
      "inputs": [
        {
          "internalType": "address",
          "name": "to",
          "type": "address"
        },
        {
          "internalType": "uint256",
          "name": "tokenId",
          "type": "uint256"
        }
      ],
      "name": "approve",
      "outputs": [],
      "stateMutability": "nonpayable",
      "type": "function"
    },
    {
      "inputs": [
        {
          "internalType": "address",
          "name": "owner",
          "type": "address"
        }
      ],
      "name": "balanceOf",
      "outputs": [
        {
          "internalType": "uint256",
          "name": "",
          "type": "uint256"
        }
      ],
      "stateMutability": "view",
      "type": "function"
    },
    {
      "inputs": [
        {
          "internalType": "uint256",
          "name": "tokenId",
          "type": "uint256"
        }
      ],
      "name": "getApproved",
      "outputs": [
        {
          "internalType": "address",
          "name": "",
          "type": "address"
        }
      ],
      "stateMutability": "view",
      "type": "function"
    },
    {
      "inputs": [
        {
          "internalType": "address",
          "name": "owner",
          "type": "address"
        },
        {
          "internalType": "address",
          "name": "operator",
          "type": "address"
        }
      ],
      "name": "isApprovedForAll",
      "outputs": [
        {
          "internalType": "bool",
          "name": "",
          "type": "bool"
        }
      ],
      "stateMutability": "view",
      "type": "function"
    },
    {
      "inputs": [
        {
          "internalType": "address",
          "name": "collector",
          "type": "address"
        },
        {
          "internalType": "string",
          "name": "metadataURI",
          "type": "string"
        }
      ],
      "name": "mintCollectionNFT",
      "outputs": [],
      "stateMutability": "nonpayable",
      "type": "function"
    },
    {
      "inputs": [],
      "name": "name",
      "outputs": [
        {
          "internalType": "string",
          "name": "",
          "type": "string"
        }
      ],
      "stateMutability": "view",
      "type": "function"
    },
    {
      "inputs": [],
      "name": "owner",
      "outputs": [
        {
          "internalType": "address",
          "name": "",
          "type": "address"
        }
      ],
      "stateMutability": "view",
      "type": "function"
    },
    {
      "inputs": [
        {
          "internalType": "uint256",
          "name": "tokenId",
          "type": "uint256"
        }
      ],
      "name": "ownerOf",
      "outputs": [
        {
          "internalType": "address",
          "name": "",
          "type": "address"
        }
      ],
      "stateMutability": "view",
      "type": "function"
    },
    {
      "inputs": [],
      "name": "renounceOwnership",
      "outputs": [],
      "stateMutability": "nonpayable",
      "type": "function"
    },
    {
      "inputs": [
        {
          "internalType": "address",
          "name": "from",
          "type": "address"
        },
        {
          "internalType": "address",
          "name": "to",
          "type": "address"
        },
        {
          "internalType": "uint256",
          "name": "tokenId",
          "type": "uint256"
        }
      ],
      "name": "safeTransferFrom",
      "outputs": [],
      "stateMutability": "nonpayable",
      "type": "function"
    },
    {
      "inputs": [
        {
          "internalType": "address",
          "name": "from",
          "type": "address"
        },
        {
          "internalType": "address",
          "name": "to",
          "type": "address"
        },
        {
          "internalType": "uint256",
          "name": "tokenId",
          "type": "uint256"
        },
        {
          "internalType": "bytes",
          "name": "data",
          "type": "bytes"
        }
      ],
      "name": "safeTransferFrom",
      "outputs": [],
      "stateMutability": "nonpayable",
      "type": "function"
    },
    {
      "inputs": [
        {
          "internalType": "address",
          "name": "operator",
          "type": "address"
        },
        {
          "internalType": "bool",
          "name": "approved",
          "type": "bool"
        }
      ],
      "name": "setApprovalForAll",
      "outputs": [],
      "stateMutability": "nonpayable",
      "type": "function"
    },
    {
      "inputs": [
        {
          "internalType": "bytes4",
          "name": "interfaceId",
          "type": "bytes4"
        }
      ],
      "name": "supportsInterface",
      "outputs": [
        {
          "internalType": "bool",
          "name": "",
          "type": "bool"
        }
      ],
      "stateMutability": "view",
      "type": "function"
    },
    {
      "inputs": [],
      "name": "symbol",
      "outputs": [
        {
          "internalType": "string",
          "name": "",
          "type": "string"
        }
      ],
      "stateMutability": "view",
      "type": "function"
    },
    {
      "inputs": [
        {
          "internalType": "uint256",
          "name": "tokenId",
          "type": "uint256"
        }
      ],
      "name": "tokenURI",
      "outputs": [
        {
          "internalType": "string",
          "name": "",
          "type": "string"
        }
      ],
      "stateMutability": "view",
      "type": "function"
    },
    {
      "inputs": [
        {
          "internalType": "address",
          "name": "from",
          "type": "address"
        },
        {
          "internalType": "address",
          "name": "to",
          "type": "address"
        },
        {
          "internalType": "uint256",
          "name": "tokenId",
          "type": "uint256"
        }
      ],
      "name": "transferFrom",
      "outputs": [],
      "stateMutability": "nonpayable",
      "type": "function"
    },
    {
      "inputs": [
        {
          "internalType": "address",
          "name": "newOwner",
          "type": "address"
        }
      ],
      "name": "transferOwnership",
      "outputs": [],
      "stateMutability": "nonpayable",
      "type": "function"
    }
  ],
  "bytecode": "0x608060405234801561001057600080fd5b50336040518060400160405280600e81526020017f44654368726f6e69636c654e46540000000000000000000000000000000000008152506040518060400160405280600581526020017f43524e4654000000000000000000000000000000000000000000000000000000815250816000908161008d9190610494565b50806001908161009d9190610494565b505050600073ffffffffffffffffffffffffffffffffffffffff168173ffffffffffffffffffffffffffffffffffffffff16036101125760006040517f1e4fbdf700000000000000000000000000000000000000000000000000000000815260040161010991906105a7565b60405180910390fd5b6101218161016b60201b60201c565b506101666040518060400160405280600781526020017f697066733a2f2f0000000000000000000000000000000000000000000000000081525061023160201b60201c565b6105c2565b6000600760009054906101000a900473ffffffffffffffffffffffffffffffffffffffff16905081600760006101000a81548173ffffffffffffffffffffffffffffffffffffffff021916908373ffffffffffffffffffffffffffffffffffffffff1602179055508173ffffffffffffffffffffffffffffffffffffffff168173ffffffffffffffffffffffffffffffffffffffff167f8be0079c531659141344cd1fd0a4f28419497f9722a3daafe3b4186f6b6457e060405160405180910390a35050565b80600990816102409190610494565b5050565b600081519050919050565b7f4e487b7100000000000000000000000000000000000000000000000000000000600052604160045260246000fd5b7f4e487b7100000000000000000000000000000000000000000000000000000000600052602260045260246000fd5b600060028204905060018216806102c557607f821691505b6020821081036102d8576102d761027e565b5b50919050565b60008190508160005260206000209050919050565b60006020601f8301049050919050565b600082821b905092915050565b6000600883026103407fffffffffffffffffffffffffffffffffffffffffffffffffffffffffffffffff82610303565b61034a8683610303565b95508019841693508086168417925050509392505050565b6000819050919050565b6000819050919050565b600061039161038c61038784610362565b61036c565b610362565b9050919050565b6000819050919050565b6103ab83610376565b6103bf6103b782610398565b848454610310565b825550505050565b600090565b6103d46103c7565b6103df8184846103a2565b505050565b5b81811015610403576103f86000826103cc565b6001810190506103e5565b5050565b601f82111561044857610419816102de565b610422846102f3565b81016020851015610431578190505b61044561043d856102f3565b8301826103e4565b50505b505050565b600082821c905092915050565b600061046b6000198460080261044d565b1980831691505092915050565b6000610484838361045a565b9150826002028217905092915050565b61049d82610244565b67ffffffffffffffff8111156104b6576104b561024f565b5b6104c082546102ad565b6104cb828285610407565b600060209050601f8311600181146104fe57600084156104ec578287015190505b6104f68582610478565b86555061055e565b601f19841661050c866102de565b60005b828110156105345784890151825560018201915060208501945060208101905061050f565b86831015610551578489015161054d601f89168261045a565b8355505b6001600288020188555050505b505050505050565b600073ffffffffffffffffffffffffffffffffffffffff82169050919050565b600061059182610566565b9050919050565b6105a181610586565b82525050565b60006020820190506105bc6000830184610598565b92915050565b6126cd806105d16000396000f3fe608060405234801561001057600080fd5b506004361061010b5760003560e01c806370a08231116100a2578063a22cb46511610071578063a22cb465146102a4578063b88d4fde146102c0578063c87b56dd146102dc578063e985e9c51461030c578063f2fde38b1461033c5761010b565b806370a082311461022e578063715018a61461025e5780638da5cb5b1461026857806395d89b41146102865761010b565b806323b872dd116100de57806323b872dd146101aa57806342842e0e146101c6578063479aa3c4146101e25780636352211e146101fe5761010b565b806301ffc9a71461011057806306fdde0314610140578063081812fc1461015e578063095ea7b31461018e575b600080fd5b61012a60048036038101906101259190611b39565b610358565b6040516101379190611b81565b60405180910390f35b6101486103b9565b6040516101559190611c2c565b60405180910390f35b61017860048036038101906101739190611c84565b61044b565b6040516101859190611cf2565b60405180910390f35b6101a860048036038101906101a39190611d39565b610467565b005b6101c460048036038101906101bf9190611d79565b61047d565b005b6101e060048036038101906101db9190611d79565b61057f565b005b6101fc60048036038101906101f79190611f01565b61059f565b005b61021860048036038101906102139190611c84565b6105dd565b6040516102259190611cf2565b60405180910390f35b61024860048036038101906102439190611f5d565b6105ef565b6040516102559190611f99565b60405180910390f35b6102666106a9565b005b6102706106bd565b60405161027d9190611cf2565b60405180910390f35b61028e6106e7565b60405161029b9190611c2c565b60405180910390f35b6102be60048036038101906102b99190611fe0565b610779565b005b6102da60048036038101906102d591906120c1565b61078f565b005b6102f660048036038101906102f19190611c84565b6107b4565b6040516103039190611c2c565b60405180910390f35b61032660048036038101906103219190612144565b6108c7565b6040516103339190611b81565b60405180910390f35b61035660048036038101906103519190611f5d565b61095b565b005b6000634906490660e01b7bffffffffffffffffffffffffffffffffffffffffffffffffffffffff1916827bffffffffffffffffffffffffffffffffffffffffffffffffffffffff191614806103b257506103b1826109e1565b5b9050919050565b6060600080546103c8906121b3565b80601f01602080910402602001604051908101604052809291908181526020018280546103f4906121b3565b80156104415780601f1061041657610100808354040283529160200191610441565b820191906000526020600020905b81548152906001019060200180831161042457829003601f168201915b5050505050905090565b600061045682610ac3565b5061046082610b4b565b9050919050565b6104798282610474610b88565b610b90565b5050565b600073ffffffffffffffffffffffffffffffffffffffff168273ffffffffffffffffffffffffffffffffffffffff16036104ef5760006040517f64a0ae920000000000000000000000000000000000000000000000000000000081526004016104e69190611cf2565b60405180910390fd5b600061050383836104fe610b88565b610ba2565b90508373ffffffffffffffffffffffffffffffffffffffff168173ffffffffffffffffffffffffffffffffffffffff1614610579578382826040517f64283d7b000000000000000000000000000000000000000000000000000000008152600401610570939291906121e4565b60405180910390fd5b50505050565b61059a8383836040518060200160405280600081525061078f565b505050565b6105a7610dbc565b6001600860008282546105ba919061224a565b925050819055506105cd82600854610e43565b6105d960085482610e61565b5050565b60006105e882610ac3565b9050919050565b60008073ffffffffffffffffffffffffffffffffffffffff168273ffffffffffffffffffffffffffffffffffffffff16036106625760006040517f89c62b640000000000000000000000000000000000000000000000000000000081526004016106599190611cf2565b60405180910390fd5b600360008373ffffffffffffffffffffffffffffffffffffffff1673ffffffffffffffffffffffffffffffffffffffff168152602001908152602001600020549050919050565b6106b1610dbc565b6106bb6000610ebd565b565b6000600760009054906101000a900473ffffffffffffffffffffffffffffffffffffffff16905090565b6060600180546106f6906121b3565b80601f0160208091040260200160405190810160405280929190818152602001828054610722906121b3565b801561076f5780601f106107445761010080835404028352916020019161076f565b820191906000526020600020905b81548152906001019060200180831161075257829003601f168201915b5050505050905090565b61078b610784610b88565b8383610f83565b5050565b61079a84848461047d565b6107ae6107a5610b88565b858585856110f2565b50505050565b60606107bf82610ac3565b5060006006600084815260200190815260200160002080546107e0906121b3565b80601f016020809104026020016040519081016040528092919081815260200182805461080c906121b3565b80156108595780601f1061082e57610100808354040283529160200191610859565b820191906000526020600020905b81548152906001019060200180831161083c57829003601f168201915b50505050509050600061086a6112a3565b9050600081510361087f5781925050506108c2565b6000825111156108b457808260405160200161089c9291906122ba565b604051602081830303815290604052925050506108c2565b6108bd84611335565b925050505b919050565b6000600560008473ffffffffffffffffffffffffffffffffffffffff1673ffffffffffffffffffffffffffffffffffffffff16815260200190815260200160002060008373ffffffffffffffffffffffffffffffffffffffff1673ffffffffffffffffffffffffffffffffffffffff16815260200190815260200160002060009054906101000a900460ff16905092915050565b610963610dbc565b600073ffffffffffffffffffffffffffffffffffffffff168173ffffffffffffffffffffffffffffffffffffffff16036109d55760006040517f1e4fbdf70000000000000000000000000000000000000000000000000000000081526004016109cc9190611cf2565b60405180910390fd5b6109de81610ebd565b50565b60007f80ac58cd000000000000000000000000000000000000000000000000000000007bffffffffffffffffffffffffffffffffffffffffffffffffffffffff1916827bffffffffffffffffffffffffffffffffffffffffffffffffffffffff19161480610aac57507f5b5e139f000000000000000000000000000000000000000000000000000000007bffffffffffffffffffffffffffffffffffffffffffffffffffffffff1916827bffffffffffffffffffffffffffffffffffffffffffffffffffffffff1916145b80610abc5750610abb8261139e565b5b9050919050565b600080610acf83611408565b9050600073ffffffffffffffffffffffffffffffffffffffff168173ffffffffffffffffffffffffffffffffffffffff1603610b4257826040517f7e273289000000000000000000000000000000000000000000000000000000008152600401610b399190611f99565b60405180910390fd5b80915050919050565b60006004600083815260200190815260200160002060009054906101000a900473ffffffffffffffffffffffffffffffffffffffff169050919050565b600033905090565b610b9d8383836001611445565b505050565b600080610bae84611408565b9050600073ffffffffffffffffffffffffffffffffffffffff168373ffffffffffffffffffffffffffffffffffffffff1614610bf057610bef81848661160a565b5b600073ffffffffffffffffffffffffffffffffffffffff168173ffffffffffffffffffffffffffffffffffffffff1614610c8157610c32600085600080611445565b6001600360008373ffffffffffffffffffffffffffffffffffffffff1673ffffffffffffffffffffffffffffffffffffffff168152602001908152602001600020600082825403925050819055505b600073ffffffffffffffffffffffffffffffffffffffff168573ffffffffffffffffffffffffffffffffffffffff1614610d04576001600360008773ffffffffffffffffffffffffffffffffffffffff1673ffffffffffffffffffffffffffffffffffffffff168152602001908152602001600020600082825401925050819055505b846002600086815260200190815260200160002060006101000a81548173ffffffffffffffffffffffffffffffffffffffff021916908373ffffffffffffffffffffffffffffffffffffffff160217905550838573ffffffffffffffffffffffffffffffffffffffff168273ffffffffffffffffffffffffffffffffffffffff167fddf252ad1be2c89b69c2b068fc378daa952ba7f163c4a11628f55a4df523b3ef60405160405180910390a4809150509392505050565b610dc4610b88565b73ffffffffffffffffffffffffffffffffffffffff16610de26106bd565b73ffffffffffffffffffffffffffffffffffffffff1614610e4157610e05610b88565b6040517f118cdaa7000000000000000000000000000000000000000000000000000000008152600401610e389190611cf2565b60405180910390fd5b565b610e5d8282604051806020016040528060008152506116ce565b5050565b80600660008481526020019081526020016000209081610e81919061248a565b507ff8e1a15aba9398e019f0b49df1a4fde98ee17ae345cb5f6b5e2c27f5033e8ce782604051610eb19190611f99565b60405180910390a15050565b6000600760009054906101000a900473ffffffffffffffffffffffffffffffffffffffff16905081600760006101000a81548173ffffffffffffffffffffffffffffffffffffffff021916908373ffffffffffffffffffffffffffffffffffffffff1602179055508173ffffffffffffffffffffffffffffffffffffffff168173ffffffffffffffffffffffffffffffffffffffff167f8be0079c531659141344cd1fd0a4f28419497f9722a3daafe3b4186f6b6457e060405160405180910390a35050565b600073ffffffffffffffffffffffffffffffffffffffff168273ffffffffffffffffffffffffffffffffffffffff1603610ff457816040517f5b08ba18000000000000000000000000000000000000000000000000000000008152600401610feb9190611cf2565b60405180910390fd5b80600560008573ffffffffffffffffffffffffffffffffffffffff1673ffffffffffffffffffffffffffffffffffffffff16815260200190815260200160002060008473ffffffffffffffffffffffffffffffffffffffff1673ffffffffffffffffffffffffffffffffffffffff16815260200190815260200160002060006101000a81548160ff0219169083151502179055508173ffffffffffffffffffffffffffffffffffffffff168373ffffffffffffffffffffffffffffffffffffffff167f17307eab39ab6107e8899845ad3d59bd9653f200f220920489ca2b5937696c31836040516110e59190611b81565b60405180910390a3505050565b60008373ffffffffffffffffffffffffffffffffffffffff163b111561129c578273ffffffffffffffffffffffffffffffffffffffff1663150b7a02868685856040518563ffffffff1660e01b815260040161115194939291906125b1565b6020604051808303816000875af192505050801561118d57506040513d601f19601f8201168201806040525081019061118a9190612612565b60015b611211573d80600081146111bd576040519150601f19603f3d011682016040523d82523d6000602084013e6111c2565b606091505b50600081510361120957836040517f64a0ae920000000000000000000000000000000000000000000000000000000081526004016112009190611cf2565b60405180910390fd5b805181602001fd5b63150b7a0260e01b7bffffffffffffffffffffffffffffffffffffffffffffffffffffffff1916817bffffffffffffffffffffffffffffffffffffffffffffffffffffffff19161461129a57836040517f64a0ae920000000000000000000000000000000000000000000000000000000081526004016112919190611cf2565b60405180910390fd5b505b5050505050565b6060600980546112b2906121b3565b80601f01602080910402602001604051908101604052809291908181526020018280546112de906121b3565b801561132b5780601f106113005761010080835404028352916020019161132b565b820191906000526020600020905b81548152906001019060200180831161130e57829003601f168201915b5050505050905090565b606061134082610ac3565b50600061134b6112a3565b9050600081511161136b5760405180602001604052806000815250611396565b80611375846116f2565b6040516020016113869291906122ba565b6040516020818303038152906040525b915050919050565b60007f01ffc9a7000000000000000000000000000000000000000000000000000000007bffffffffffffffffffffffffffffffffffffffffffffffffffffffff1916827bffffffffffffffffffffffffffffffffffffffffffffffffffffffff1916149050919050565b60006002600083815260200190815260200160002060009054906101000a900473ffffffffffffffffffffffffffffffffffffffff169050919050565b808061147e5750600073ffffffffffffffffffffffffffffffffffffffff168273ffffffffffffffffffffffffffffffffffffffff1614155b156115b257600061148e84610ac3565b9050600073ffffffffffffffffffffffffffffffffffffffff168373ffffffffffffffffffffffffffffffffffffffff16141580156114f957508273ffffffffffffffffffffffffffffffffffffffff168173ffffffffffffffffffffffffffffffffffffffff1614155b801561150c575061150a81846108c7565b155b1561154e57826040517fa9fbf51f0000000000000000000000000000000000000000000000000000000081526004016115459190611cf2565b60405180910390fd5b81156115b057838573ffffffffffffffffffffffffffffffffffffffff168273ffffffffffffffffffffffffffffffffffffffff167f8c5be1e5ebec7d5bd14f71427d1e84f3dd0314c0f7b2291e5b200ac8c7c3b92560405160405180910390a45b505b836004600085815260200190815260200160002060006101000a81548173ffffffffffffffffffffffffffffffffffffffff021916908373ffffffffffffffffffffffffffffffffffffffff16021790555050505050565b6116158383836117c0565b6116c957600073ffffffffffffffffffffffffffffffffffffffff168373ffffffffffffffffffffffffffffffffffffffff160361168a57806040517f7e2732890000000000000000000000000000000000000000000000000000000081526004016116819190611f99565b60405180910390fd5b81816040517f177e802f0000000000000000000000000000000000000000000000000000000081526004016116c092919061263f565b60405180910390fd5b505050565b6116d88383611881565b6116ed6116e3610b88565b60008585856110f2565b505050565b6060600060016117018461197a565b01905060008167ffffffffffffffff8111156117205761171f611dd6565b5b6040519080825280601f01601f1916602001820160405280156117525781602001600182028036833780820191505090505b509050600082602001820190505b6001156117b5578080600190039150507f3031323334353637383961626364656600000000000000000000000000000000600a86061a8153600a85816117a9576117a8612668565b5b04945060008503611760575b819350505050919050565b60008073ffffffffffffffffffffffffffffffffffffffff168373ffffffffffffffffffffffffffffffffffffffff161415801561187857508273ffffffffffffffffffffffffffffffffffffffff168473ffffffffffffffffffffffffffffffffffffffff161480611839575061183884846108c7565b5b8061187757508273ffffffffffffffffffffffffffffffffffffffff1661185f83610b4b565b73ffffffffffffffffffffffffffffffffffffffff16145b5b90509392505050565b600073ffffffffffffffffffffffffffffffffffffffff168273ffffffffffffffffffffffffffffffffffffffff16036118f35760006040517f64a0ae920000000000000000000000000000000000000000000000000000000081526004016118ea9190611cf2565b60405180910390fd5b600061190183836000610ba2565b9050600073ffffffffffffffffffffffffffffffffffffffff168173ffffffffffffffffffffffffffffffffffffffff16146119755760006040517f73c6ac6e00000000000000000000000000000000000000000000000000000000815260040161196c9190611cf2565b60405180910390fd5b505050565b600080600090507a184f03e93ff9f4daa797ed6e38ed64bf6a1f01000000000000000083106119d8577a184f03e93ff9f4daa797ed6e38ed64bf6a1f01000000000000000083816119ce576119cd612668565b5b0492506040810190505b6d04ee2d6d415b85acef81000000008310611a15576d04ee2d6d415b85acef81000000008381611a0b57611a0a612668565b5b0492506020810190505b662386f26fc100008310611a4457662386f26fc100008381611a3a57611a39612668565b5b0492506010810190505b6305f5e1008310611a6d576305f5e1008381611a6357611a62612668565b5b0492506008810190505b6127108310611a92576127108381611a8857611a87612668565b5b0492506004810190505b60648310611ab55760648381611aab57611aaa612668565b5b0492506002810190505b600a8310611ac4576001810190505b80915050919050565b6000604051905090565b600080fd5b600080fd5b60007fffffffff0000000000000000000000000000000000000000000000000000000082169050919050565b611b1681611ae1565b8114611b2157600080fd5b50565b600081359050611b3381611b0d565b92915050565b600060208284031215611b4f57611b4e611ad7565b5b6000611b5d84828501611b24565b91505092915050565b60008115159050919050565b611b7b81611b66565b82525050565b6000602082019050611b966000830184611b72565b92915050565b600081519050919050565b600082825260208201905092915050565b60005b83811015611bd6578082015181840152602081019050611bbb565b60008484015250505050565b6000601f19601f8301169050919050565b6000611bfe82611b9c565b611c088185611ba7565b9350611c18818560208601611bb8565b611c2181611be2565b840191505092915050565b60006020820190508181036000830152611c468184611bf3565b905092915050565b6000819050919050565b611c6181611c4e565b8114611c6c57600080fd5b50565b600081359050611c7e81611c58565b92915050565b600060208284031215611c9a57611c99611ad7565b5b6000611ca884828501611c6f565b91505092915050565b600073ffffffffffffffffffffffffffffffffffffffff82169050919050565b6000611cdc82611cb1565b9050919050565b611cec81611cd1565b82525050565b6000602082019050611d076000830184611ce3565b92915050565b611d1681611cd1565b8114611d2157600080fd5b50565b600081359050611d3381611d0d565b92915050565b60008060408385031215611d5057611d4f611ad7565b5b6000611d5e85828601611d24565b9250506020611d6f85828601611c6f565b9150509250929050565b600080600060608486031215611d9257611d91611ad7565b5b6000611da086828701611d24565b9350506020611db186828701611d24565b9250506040611dc286828701611c6f565b9150509250925092565b600080fd5b600080fd5b7f4e487b7100000000000000000000000000000000000000000000000000000000600052604160045260246000fd5b611e0e82611be2565b810181811067ffffffffffffffff82111715611e2d57611e2c611dd6565b5b80604052505050565b6000611e40611acd565b9050611e4c8282611e05565b919050565b600067ffffffffffffffff821115611e6c57611e6b611dd6565b5b611e7582611be2565b9050602081019050919050565b82818337600083830152505050565b6000611ea4611e9f84611e51565b611e36565b905082815260208101848484011115611ec057611ebf611dd1565b5b611ecb848285611e82565b509392505050565b600082601f830112611ee857611ee7611dcc565b5b8135611ef8848260208601611e91565b91505092915050565b60008060408385031215611f1857611f17611ad7565b5b6000611f2685828601611d24565b925050602083013567ffffffffffffffff811115611f4757611f46611adc565b5b611f5385828601611ed3565b9150509250929050565b600060208284031215611f7357611f72611ad7565b5b6000611f8184828501611d24565b91505092915050565b611f9381611c4e565b82525050565b6000602082019050611fae6000830184611f8a565b92915050565b611fbd81611b66565b8114611fc857600080fd5b50565b600081359050611fda81611fb4565b92915050565b60008060408385031215611ff757611ff6611ad7565b5b600061200585828601611d24565b925050602061201685828601611fcb565b9150509250929050565b600067ffffffffffffffff82111561203b5761203a611dd6565b5b61204482611be2565b9050602081019050919050565b600061206461205f84612020565b611e36565b9050828152602081018484840111156120805761207f611dd1565b5b61208b848285611e82565b509392505050565b600082601f8301126120a8576120a7611dcc565b5b81356120b8848260208601612051565b91505092915050565b600080600080608085870312156120db576120da611ad7565b5b60006120e987828801611d24565b94505060206120fa87828801611d24565b935050604061210b87828801611c6f565b925050606085013567ffffffffffffffff81111561212c5761212b611adc565b5b61213887828801612093565b91505092959194509250565b6000806040838503121561215b5761215a611ad7565b5b600061216985828601611d24565b925050602061217a85828601611d24565b9150509250929050565b7f4e487b7100000000000000000000000000000000000000000000000000000000600052602260045260246000fd5b600060028204905060018216806121cb57607f821691505b6020821081036121de576121dd612184565b5b50919050565b60006060820190506121f96000830186611ce3565b6122066020830185611f8a565b6122136040830184611ce3565b949350505050565b7f4e487b7100000000000000000000000000000000000000000000000000000000600052601160045260246000fd5b600061225582611c4e565b915061226083611c4e565b92508282019050808211156122785761227761221b565b5b92915050565b600081905092915050565b600061229482611b9c565b61229e818561227e565b93506122ae818560208601611bb8565b80840191505092915050565b60006122c68285612289565b91506122d28284612289565b91508190509392505050565b60008190508160005260206000209050919050565b60006020601f8301049050919050565b600082821b905092915050565b6000600883026123407fffffffffffffffffffffffffffffffffffffffffffffffffffffffffffffffff82612303565b61234a8683612303565b95508019841693508086168417925050509392505050565b6000819050919050565b600061238761238261237d84611c4e565b612362565b611c4e565b9050919050565b6000819050919050565b6123a18361236c565b6123b56123ad8261238e565b848454612310565b825550505050565b600090565b6123ca6123bd565b6123d5818484612398565b505050565b5b818110156123f9576123ee6000826123c2565b6001810190506123db565b5050565b601f82111561243e5761240f816122de565b612418846122f3565b81016020851015612427578190505b61243b612433856122f3565b8301826123da565b50505b505050565b600082821c905092915050565b600061246160001984600802612443565b1980831691505092915050565b600061247a8383612450565b9150826002028217905092915050565b61249382611b9c565b67ffffffffffffffff8111156124ac576124ab611dd6565b5b6124b682546121b3565b6124c18282856123fd565b600060209050601f8311600181146124f457600084156124e2578287015190505b6124ec858261246e565b865550612554565b601f198416612502866122de565b60005b8281101561252a57848901518255600182019150602085019450602081019050612505565b868310156125475784890151612543601f891682612450565b8355505b6001600288020188555050505b505050505050565b600081519050919050565b600082825260208201905092915050565b60006125838261255c565b61258d8185612567565b935061259d818560208601611bb8565b6125a681611be2565b840191505092915050565b60006080820190506125c66000830187611ce3565b6125d36020830186611ce3565b6125e06040830185611f8a565b81810360608301526125f28184612578565b905095945050505050565b60008151905061260c81611b0d565b92915050565b60006020828403121561262857612627611ad7565b5b6000612636848285016125fd565b91505092915050565b60006040820190506126546000830185611ce3565b6126616020830184611f8a565b9392505050565b7f4e487b7100000000000000000000000000000000000000000000000000000000600052601260045260246000fdfea264697066735822122053e03b7d90ea907464cbcf8af02448d036377032c1655124d38793522224f9d164736f6c634300081b0033",
  "linkReferences": {},
  "deployedLinkReferences": {}
}